{
  "contractName": "XChainSwap",
  "abi": [
    {
      "constant": true,
      "inputs": [],
      "name": "beneficiary",
      "outputs": [
        {
          "name": "",
          "type": "address"
        }
      ],
      "payable": false,
      "stateMutability": "view",
      "type": "function"
    },
    {
      "constant": true,
      "inputs": [],
      "name": "digest",
      "outputs": [
        {
          "name": "",
          "type": "bytes32"
        }
      ],
      "payable": false,
      "stateMutability": "view",
      "type": "function"
    },
    {
      "constant": true,
      "inputs": [],
      "name": "version",
      "outputs": [
        {
          "name": "",
          "type": "string"
        }
      ],
      "payable": false,
      "stateMutability": "view",
      "type": "function"
    },
    {
      "constant": true,
      "inputs": [],
      "name": "timeOut",
      "outputs": [
        {
          "name": "",
          "type": "uint256"
        }
      ],
      "payable": false,
      "stateMutability": "view",
      "type": "function"
    },
    {
      "inputs": [
        {
          "name": "_beneficiary",
          "type": "address"
        },
        {
          "name": "_digest",
          "type": "bytes32"
        },
        {
          "name": "_beneficiaryName",
          "type": "string"
        },
        {
          "name": "_chain",
          "type": "string"
        }
      ],
      "payable": false,
      "stateMutability": "nonpayable",
      "type": "constructor"
    },
    {
      "payable": true,
      "stateMutability": "payable",
      "type": "fallback"
    },
    {
      "anonymous": false,
      "inputs": [
        {
          "indexed": false,
          "name": "hashError",
          "type": "string"
        }
      ],
      "name": "WrongPreImage",
      "type": "event"
    },
    {
      "anonymous": false,
      "inputs": [
        {
          "indexed": false,
          "name": "hashCorrect",
          "type": "string"
        }
      ],
      "name": "CorrectPreImage",
      "type": "event"
    },
    {
      "constant": false,
      "inputs": [
        {
          "name": "_hash",
          "type": "string"
        }
      ],
      "name": "releaseFunds",
      "outputs": [
        {
          "name": "result",
          "type": "bool"
        }
      ],
      "payable": false,
      "stateMutability": "nonpayable",
      "type": "function"
    },
    {
      "constant": false,
      "inputs": [],
      "name": "refundOwner",
      "outputs": [
        {
          "name": "result",
          "type": "bool"
        }
      ],
      "payable": false,
      "stateMutability": "nonpayable",
      "type": "function"
    },
    {
      "constant": true,
      "inputs": [],
      "name": "getBalance",
      "outputs": [
        {
          "name": "",
          "type": "uint256"
        }
      ],
      "payable": false,
      "stateMutability": "view",
      "type": "function"
    },
    {
      "constant": true,
      "inputs": [],
      "name": "getBeneficiary",
      "outputs": [
        {
          "name": "",
          "type": "address"
        },
        {
          "name": "",
          "type": "string"
        },
        {
          "name": "",
          "type": "string"
        }
      ],
      "payable": false,
      "stateMutability": "view",
      "type": "function"
    }
  ],
  "bytecode": "0x60806040526040518060400160405280600581526020017f302e302e330000000000000000000000000000000000000000000000000000008152506000908051906020019061004f9291906102d6565b50613840420160035533600460006101000a81548173ffffffffffffffffffffffffffffffffffffffff021916908373ffffffffffffffffffffffffffffffffffffffff1602179055506040518060400160405280601381526020017f77726f6e67206861736820707265696d61676500000000000000000000000000815250600790805190602001906100e49291906102d6565b506040518060400160405280602081526020017f46756e6473207472616e7366657272656420746f2062656e6566696369617279815250600890805190602001906101309291906102d6565b5034801561013d57600080fd5b50604051610c72380380610c728339810180604052608081101561016057600080fd5b810190808051906020019092919080519060200190929190805164010000000081111561018c57600080fd5b828101905060208101848111156101a257600080fd5b81518560018202830111640100000000821117156101bf57600080fd5b505092919060200180516401000000008111156101db57600080fd5b828101905060208101848111156101f157600080fd5b815185600182028301116401000000008211171561020e57600080fd5b50509291905050508260018190555033600460006101000a81548173ffffffffffffffffffffffffffffffffffffffff021916908373ffffffffffffffffffffffffffffffffffffffff16021790555083600260006101000a81548173ffffffffffffffffffffffffffffffffffffffff021916908373ffffffffffffffffffffffffffffffffffffffff16021790555081600590805190602001906102b59291906102d6565b5080600690805190602001906102cc9291906102d6565b505050505061037b565b828054600181600116156101000203166002900490600052602060002090601f016020900481019282601f1061031757805160ff1916838001178555610345565b82800160010185558215610345579182015b82811115610344578251825591602001919060010190610329565b5b5090506103529190610356565b5090565b61037891905b8082111561037457600081600090555060010161035c565b5090565b90565b6108e88061038a6000396000f3fe608060405260043610610098576000357c010000000000000000000000000000000000000000000000000000000090048063565a2e2c1161006b578063565a2e2c146101d7578063614d85e1146103065780638c47ddcc14610331578063c3abd8b31461036057610098565b806312065fe01461009a57806338af3eed146100c557806352a82b651461011c57806354fd4d5014610147575b005b3480156100a657600080fd5b506100af610440565b6040518082815260200191505060405180910390f35b3480156100d157600080fd5b506100da61045f565b604051808273ffffffffffffffffffffffffffffffffffffffff1673ffffffffffffffffffffffffffffffffffffffff16815260200191505060405180910390f35b34801561012857600080fd5b50610131610485565b6040518082815260200191505060405180910390f35b34801561015357600080fd5b5061015c61048b565b6040518080602001828103825283818151815260200191508051906020019080838360005b8381101561019c578082015181840152602081019050610181565b50505050905090810190601f1680156101c95780820380516001836020036101000a031916815260200191505b509250505060405180910390f35b3480156101e357600080fd5b506101ec610529565b604051808473ffffffffffffffffffffffffffffffffffffffff1673ffffffffffffffffffffffffffffffffffffffff1681526020018060200180602001838103835285818151815260200191508051906020019080838360005b83811015610262578082015181840152602081019050610247565b50505050905090810190601f16801561028f5780820380516001836020036101000a031916815260200191505b50838103825284818151815260200191508051906020019080838360005b838110156102c85780820151818401526020810190506102ad565b50505050905090810190601f1680156102f55780820380516001836020036101000a031916815260200191505b509550505050505060405180910390f35b34801561031257600080fd5b5061031b61069b565b6040518082815260200191505060405180910390f35b34801561033d57600080fd5b506103466106a1565b604051808215151515815260200191505060405180910390f35b34801561036c57600080fd5b506104266004803603602081101561038357600080fd5b81019080803590602001906401000000008111156103a057600080fd5b8201836020820111156103b257600080fd5b803590602001918460018302840111640100000000831117156103d457600080fd5b91908080601f016020809104026020016040519081016040528093929190818152602001838380828437600081840152601f19601f820116905080830192505050505050509192919290505050610747565b604051808215151515815260200191505060405180910390f35b60003073ffffffffffffffffffffffffffffffffffffffff1631905090565b600260009054906101000a900473ffffffffffffffffffffffffffffffffffffffff1681565b60015481565b60008054600181600116156101000203166002900480601f0160208091040260200160405190810160405280929190818152602001828054600181600116156101000203166002900480156105215780601f106104f657610100808354040283529160200191610521565b820191906000526020600020905b81548152906001019060200180831161050457829003601f168201915b505050505081565b6000606080600260009054906101000a900473ffffffffffffffffffffffffffffffffffffffff1660056006829250818054600181600116156101000203166002900480601f0160208091040260200160405190810160405280929190818152602001828054600181600116156101000203166002900480156105ed5780601f106105c2576101008083540402835291602001916105ed565b820191906000526020600020905b8154815290600101906020018083116105d057829003601f168201915b50505050509150808054600181600116156101000203166002900480601f0160208091040260200160405190810160405280929190818152602001828054600181600116156101000203166002900480156106895780601f1061065e57610100808354040283529160200191610689565b820191906000526020600020905b81548152906001019060200180831161066c57829003601f168201915b50505050509050925092509250909192565b60035481565b6000600460009054906101000a900473ffffffffffffffffffffffffffffffffffffffff1673ffffffffffffffffffffffffffffffffffffffff163373ffffffffffffffffffffffffffffffffffffffff16146106fd57600080fd5b60035442101561070c57600080fd5b600460009054906101000a900473ffffffffffffffffffffffffffffffffffffffff1673ffffffffffffffffffffffffffffffffffffffff16ff5b60008180805190602001206001541461075f57600080fd5b7fee4d458c9abb4d637306f751cadf22e984ce944a542102c32e2323b9ec5f54726007604051808060200182810382528381815460018160011615610100020316600290048152602001915080546001816001161561010002031660029004801561080b5780601f106107e05761010080835404028352916020019161080b565b820191906000526020600020905b8154815290600101906020018083116107ee57829003601f168201915b50509250505060405180910390a17f73291cff44dbaafd627f488455f34b4838442fdac192810dba872a9be9df48166040518080602001828103825260208152602001807f46756e6473207472616e7366657272656420746f2062656e656669636961727981525060200191505060405180910390a1600260009054906101000a900473ffffffffffffffffffffffffffffffffffffffff1673ffffffffffffffffffffffffffffffffffffffff16fffea165627a7a72305820b1a2b3624462674d135fb0eb69068cec01fd51a53a0b2f7368441f43c0ff8a150029",
  "source": "pragma solidity ^0.5.6;\n\n/// @title Hashed Time Locked Contract for Atomic Swap - This is a basic Payable contract to facilitate the transfer of assets between 2 trusted parties between 2 EVM Compatible chains\n/// @author Patrick O'Sullivan\n\ncontract XChainSwap {\n    \n/// @param _beneficiary Address is the other persons address with who you wish to swap an asset with\n/// @param _digest Bytes32 is the keccak256 hash digest. Each party must enter the same pre-image in order to unlock the funds\n/// @param _beneficiaryName string The name of the person or an identifier, not strickly necessary\n/// @param _chain string the name/identifier of the chain which this operation takes place\n\n    string public version = \"0.0.3\";\n    bytes32 public digest;\n    address payable public beneficiary;\n    uint public timeOut = now + 4 hours;\n    address payable liquidityProvider = msg.sender;\n    string beneficiaryName;\n    string chain;\n    string hashError = \"wrong hash preimage\";\n    string hashCorrect = \"Funds transferred to beneficiary\";\n\n    event WrongPreImage( string hashError );\n\n    event CorrectPreImage( string hashCorrect );\n\n    modifier onlyLiquidityProvider {\n        require(msg.sender == liquidityProvider);\n        _;\n    }\n    modifier onlyCorrectPreImage(string memory _hash) {\n        require(digest ==  keccak256(bytes(_hash)));\n        emit WrongPreImage(hashError);\n        _;\n    }\n\n    constructor( address payable _beneficiary, bytes32 _digest, string memory _beneficiaryName, string memory _chain ) public {\n        digest            = _digest;\n        liquidityProvider = msg.sender;\n        beneficiary       = _beneficiary;\n        beneficiaryName   = _beneficiaryName;\n        chain             = _chain;\n    }\n\n    function releaseFunds(string memory _hash)  onlyCorrectPreImage(_hash) public returns(bool result) {\n       emit CorrectPreImage(\"Funds transferred to beneficiary\");\n       selfdestruct(beneficiary);\n       return true;\n    }\n\n    function refundOwner() onlyLiquidityProvider public returns(bool result) {\n        require(now >= timeOut);\n        selfdestruct(liquidityProvider);\n        return true;\n    }\n\n    function getBalance() public view returns (uint256) {\n        return address(this).balance;\n    }\n\n    function getBeneficiary() public view returns  (address, string memory, string memory) {\n        return (beneficiary, beneficiaryName, chain);\n    }\n\n    function () external payable {}\n\n}\n",
  "sourcePath": "/Applications/MAMP/htdocs/smartcontracts2/contracts/htlc-swap/crosschain-swap.sol",
  "compiler": {
    "name": "solc",
    "version": "0.5.6+commit.b259423e.Emscripten.clang"
  },
  "schemaVersion": "3.0.6",
  "updatedAt": "2019-04-03T19:33:59.943Z",
  "devdoc": {
    "author": "Patrick O'Sullivan",
    "methods": {},
    "title": "Hashed Time Locked Contract for Atomic Swap - This is a basic Payable contract to facilitate the transfer of assets between 2 trusted parties between 2 EVM Compatible chains"
  },
  "userdoc": {
    "methods": {}
  }
}